:100000000C9455050C947D050C947D050C947D0590
:100010000C947D050C947D050C947D050C947D0558
:100020000C947D050C947D050C947D050C947D0548
:100030000C947D050C947D050C947D050C947D0538
:100040000C9454170C947D050C947D050C947D053F
:100050000C947D050C947D050C947D050C947D0518
:100060000C949E170C947D052200FF210050574DE3
:100070003A0050574D3A2020250042525354004137
:1000800055544F0053454D490000000000003E5BB1
:100090004F5B3E3E6B4F6B3E1C3E7C3E1C183C7ED5
:1000A0003C181C577D571C1C5E7F5E1C00183C18BA
:1000B00000FFE7C3E7FF0018241800FFE7DBE7FFB6
:1000C00030483A060E2629792926407F0505074043
:1000D0007F05253F5A3CE73C5A7F3E1C1C08081C04
:1000E0001C3E7F14227F22145F5F005F5F06097F42
:1000F000017F006689956A606060606094A2FFA2DB
:100100009408047E040810207E201008082A1C0889
:10011000081C2A08081E101010100C1E0C1E0C3093
:10012000383E3830060E3E0E06000000000000008B
:100130005F00000007000700147F147F14242A7F4B
:100140002A12231308646236495620500008070318
:1001500000001C2241000041221C002A1C7F1C2A96
:1001600008083E08080080703000080808080800E9
:100170000060600020100804023E5149453E0042E4
:100180007F400072494949462141494D33181412B4
:100190007F1027454545393C4A49493141211109DC
:1001A000073649494936464949291E0000140000CE
:1001B00000403400000008142241141414141400E8
:1001C0004122140802015909063E415D594E7C1234
:1001D00011127C7F494949363E414141227F4141CC
:1001E000413E7F494949417F090909013E41415149
:1001F000737F0808087F00417F41002040413F0194
:100200007F081422417F404040407F021C027F7FD4
:100210000408107F3E4141413E7F090909063E41E5
:1002200051215E7F09192946264949493203017F38
:1002300001033F4040403F1F2040201F3F403840C7
:100240003F631408146303047804036159494D4360
:10025000007F4141410204081020004141417F04D8
:1002600002010204404040404000030708002054BF
:100270005478407F2844443838444444283844441F
:10028000287F385454541800087E090218A4A49CEE
:10029000787F0804047800447D40002040403D0001
:1002A0007F1028440000417F40007C047804787C63
:1002B000080404783844444438FC182424181824CA
:1002C0002418FC7C08040408485454542404043FB3
:1002D00044243C4040207C1C2040201C3C403040BA
:1002E0003C44281028444C9090907C4464544C44E6
:1002F0000008364100000077000000413608000287
:10030000010204023C2623263C1EA1A161123A40B0
:1003100040207A3854545559215555794122545426
:100320007842215554784020545579400C1E527221
:1003300012395555555939545454593955545458FE
:100340000000457C410002457D420001457C407D26
:100350001211127DF0282528F07C545545002054B8
:10036000547C547C0A097F4932494949323A444411
:10037000443A324A4848303A4141217A3A42402090
:1003800078009DA0A07D3D4242423D3D4040403D21
:100390003C24FF2424487E4943662B2FFC2F2BFF4F
:1003A0000929F620C0887E090320545479410000B1
:1003B000447D413048484A32384040227A007A0A27
:1003C0000A727D0D19317D2629292F2826292929F0
:1003D0002630484D40203808080808080808083822
:1003E0002F10C8ACBA2F102834FA00007B00000888
:1003F000142A142222142A14085500550055AA550F
:10040000AA55AAFF55FF55FF000000FF001010106D
:10041000FF00141414FF001010FF00FF1010F01064
:10042000F0141414FC001414F700FF0000FF00FF88
:100430001414F404FC141417101F10101F101F14B0
:1004400014141F00101010F0000000001F101010F6
:10045000101F10101010F010000000FF10101010EE
:100460001010101010FF10000000FF140000FF001B
:10047000FF00001F10170000FC04F41414171017DD
:100480001414F404F40000FF00F7141414141414EA
:1004900014F700F7141414171410101F101F14145D
:1004A00014F4141010F010F000001F101F000000D2
:1004B0001F14000000FC140000F010F01010FF10DA
:1004C000FF141414FF141010101F00000000F0108F
:1004D000FFFFFFFFFFF0F0F0F0F0FFFFFF00000074
:1004E0000000FFFF0F0F0F0F0F3844443844FC4A41
:1004F0004A4A347E02020606027E027E02635549A3
:1005000041633844443C04407E201E2006027E02A3
:100510000299A5E7A5991C2A492A1C4C7201724C24
:10052000304A4D4D303048784830BC625A463D3EE6
:10053000494949007E0101017E2A2A2A2A2A444487
:100540005F444440514A444040444A51400000FF07
:100550000103E080FF000008086B6B0836123624A8
:1005600036060F090F0600001818000000101000D2
:100570003040FF0101001F01011E00191D1712006C
:100580003C3C3C3C0000000000000103070F1F3F03
:100590007F0080C0E0F0F8FCFE0000000023002691
:1005A00000290000000000240027002A00DB40A4EE
:1005B000A62EAF2000A1C8D300408DAED580A801E3
:1005C00002040810204080010204081020010204E7
:1005D00008102000000000250028002B000404045F
:1005E00004040404040202020202020303030303DC
:1005F0000300006000000000000000000000000098
:100600000000E0000000000000000000000000000A
:1006100001E00000000000000000000000000001F8
:10062000F00000000000000000000000000003F0E7
:100630000000000000000000000000000007F000C3
:1006400000000000000000000000000007F80000AB
:1006500000000000000000000000000FF800000093
:1006600003C0007E000001E0007F0FF800000003DF
:10067000C000FE000001E000FFEFF800000003C032
:1006800000FE000001E000FFFFF800000003C000D2
:10069000F00000000F007FFE7FC0000003C000F0EC
:1006A0000000000F003FFE7FF83FF1FBCFFCFEF3A0
:1006B000BC3DEFE01FFE7FFF7FFBFFDFFEFEFFBCC8
:1006C0003DEFE01FC6FFFF7FFBFFDFFEFEFFBC3DEF
:1006D000EFE00FE3C7FE787BC3DE1EF0FFBC3DEF0B
:1006E0000007FF87FC787BC3DE1EF0F83C3DEF007F
:1006F00001FFFFF0007BC3C01EF0F03C3DEF0001A6
:10070000F37FE03FFBC3CFFEF0F03C3DEF0003E39F
:100710003F807FFBC3DFFEF0F03C3DEF0007E73C8E
:1007200000787BC3DE1EF0F03C3DEF0007FFBE000B
:10073000787BC3DE1EF0F03C3DEF0007FFFE007843
:100740007BC3DE1EF0F03C3DEF000FFFFE007FFBA1
:10075000FFDFFEF0F03FFDEFE00FFFFF007FFBFF4C
:10076000DFFEF0F03FFDEFE00FF9FF003E79F9CF3B
:100770009EF0F01F3DE7E01FF1FF000000000000C9
:100780000000000000001F80FF007FFFFFFFFFFF51
:10079000FFFFFFFFE01C007F007FFFFFFFFEB46D47
:1007A000888D18E000001F007FFFFFFFFE95AD7DE4
:1007B000B577E000000F007FFFFFFFFEA5AD9D8D28
:1007C00019E0000006007FFFFFFFFEB5ADEDB57E2E
:1007D000E0000000000001800000000000000000B8
:1007E00000038000000000000000000007C00000BF
:1007F0000000000000000007C00000000000000032
:1008000000000FC00000000000000000001FE0001A
:1008100000000000000000001FE0000000000000D9
:100820000000003FE00000000000000000003FF07A
:100830000000000000000000007FF0000000000049
:1008400000001FF87FF0000000000000003FFE7F66
:10085000F0000000000000003FFF7FF000000000FB
:100860000000001FFFFBE0000000000000000FFF81
:10087000F9FFC00000000000000FFFF9FFF80000C2
:100880000000000007FFF1FFFF0000000000000370
:10089000FC73FFFF80000000000001FE3FFFFF80AF
:1008A000000000000000FF1E0FFF0000000000001D
:1008B000007FFE1FFC000000000000003FFFFFF86B
:1008C000000000000000000FDFFFE000000000005B
:1008D00000001F19FFC0000000000000003F3CFFA7
:1008E00000000000000000007E7CF8000000000016
:1008F0000000007FFE7C0000000000000000FFFF01
:10090000FC0000000000000000FFFFFE00000000EF
:1009100000000000FFFFFE0000000000000001FFDB
:10092000EFFE0000000000000001FFCFFE0000000D
:100930000000000003FF07FE0000000000000003AD
:10094000FC07FE0000000000000003F003FE0000B2
:100950000000000000018000FE0000000000000018
:100960000000007E000000000000000000003E00CB
:100970000000000000000000000C0000000000006B
:10098000078000FC000003C0000000078001FC009D
:100990000003C0000000078001FC000003C000004D
:1009A00000078001E00000001E000000078001E059
:1009B0000000001E007FE3F79FF9FDE7787BDFC0B2
:1009C000FFF7FFBFFDFDFF787BDFC0FFF7FFBFFD37
:1009D000FDFF787BDFC0F0F787BC3DE1FF787BDE71
:1009E00000F0F787BC3DE1F0787BDE0000F7878000
:1009F0003DE1E0787BDE007FF7879FFDE1E0787BDB
:100A0000DE00FFF787BFFDE1E0787BDE00F0F787CF
:100A1000BC3DE1E0787BDE00F0F787BC3DE1E078AB
:100A20007BDE00F0F787BC3DE1E0787BDE00FFF77E
:100A3000FFBFFDE1E07FFBDFC0FFF7FFBFFDE1E0AF
:100A40007FFBDFC07CF3F39F3DE1E03E7BCFC00046
:100A500000000000000000000000FFFFFFFFFFFF9C
:100A6000FFFFFFFFC0FFFFFFFFFD68DB111A31C072
:100A7000FFFFFFFFFD2B5AFB6AEFC0FFFFFFFFFDEB
:100A80004B5B3B1A33C0FFFFFFFFFD6B5BDB6AFD77
:100A9000C00000000800020100000304070000007D
:100AA000000000000000BD18971E11241FBECFEFEC
:100AB000D8E0DEBFCDBF11E0A0E0B1E0E8E6F0E4B1
:100AC00002C005900D92A834B107D9F722E0A8E43E
:100AD000B1E001C01D92A03AB207E1F715E0C4E50C
:100AE000D5E004C02197FE010E94DC1EC335D1076A
:100AF000C9F70E942A190C9427200C9400002FB7E4
:100B0000F8946091B7017091B8018091B90190910A
:100B1000BA012FBF089591E0909332028093310281
:100B20001092300210922F020895CF93DF93C3E307
:100B3000D2E0E881F98109957B836A83DF91CF91C7
:100B4000089590912E029111FCCF91E090932E0286
:100B500090932D022FEF20932C0210922B02260F40
:100B600020932A029093290290912902880F892BC1
:100B700080932902809128028130F9F41092280292
:100B8000809129028093BB008091BC0083FDF8CF47
:100B900085EC8093BC0080912E028130E1F380913E
:100BA0002B02861710F460912B02A8E0B2E0E8EE69
:100BB000F1E080E0861303C0089585EEEACF9D91B1
:100BC00091938F5FF7CF089508950895CF93DF93A2
:100BD000C3E3D2E0E881F98109952A813B81CB0109
:100BE000821B930BDF91CF910895AF92BF92CF926A
:100BF000DF92EF92FF920F931F93CF93DF936C01DD
:100C00007B018B01040F151FEB015E01AE18BF08BD
:100C1000C017D10759F06991D601ED91FC9101906F
:100C2000F081E02DC6010995892B79F7C501DF9187
:100C3000CF911F910F91FF90EF90DF90CF90BF90D9
:100C4000AF900895833081F028F4813099F082309C
:100C5000A9F008958730A9F08830C9F08430B1F444
:100C6000809180008F7D03C0809180008F7780937A
:100C70008000089584B58F7784BD089584B58F7DF5
:100C8000FBCF8091B0008F778093B0000895809162
:100C9000B0008F7DF9CFCF93DF93282F30E0F9019B
:100CA000EF56F54F8491F901E154FA4FD491F901CF
:100CB000E352FA4FC491CC23A1F081110E94220685
:100CC000EC2FF0E0EE0FFF1FE756FA4FA591B4911D
:100CD000EC91ED2381E090E009F480E0DF91CF9189
:100CE000089580E090E0FACF1F93CF93DF93282FF1
:100CF00030E0F901EF56F54F8491F901E154FA4FD4
:100D0000D491F901E352FA4FC491CC23A9F0162FE4
:100D100081110E942206EC2FF0E0EE0FFF1FED5232
:100D2000FA4FA591B4918FB7F894EC91111108C0C6
:100D3000D095DE23DC938FBFDF91CF911F91089573
:100D4000DE2BF8CF1092E7011092E60110923002EC
:100D500010922F0210922E0281E080932D021092A9
:100D6000280261E082E10E94740661E083E10E9452
:100D70007406E9EBF0E080818E7F808380818D7F37
:100D8000808388E48093B80085E48093BC0083EE80
:100D900095E09093E5018093E40184EE95E09093D3
:100DA000E3018093E2010895CF93DF9390E0FC018B
:100DB000E154FA4F249183529A4FFC018491882385
:100DC000D1F090E0880F991FFC01ED55FA4FA591E5
:100DD000B491FC01ED52FA4FC591D491623071F497
:100DE0009FB7F8943C91822F809583238C93E88160
:100DF0002E2B28839FBFDF91CF9108958FB7F89452
:100E0000EC912E2B2C938FBFF6CF8E508064809365
:100E10007C0080917A00806480937A0080917A00CF
:100E200086FDFCCF809178009091790008953FB7BE
:100E3000F8948091BB019091BC01A091BD01B0914B
:100E4000BE0126B5A89B05C02F3F19F00196A11D34
:100E5000B11D3FBFBA2FA92F982F8827BC01CD0104
:100E6000620F711D811D911D42E0660F771F881F63
:100E7000991F4A95D1F708958F929F92AF92BF9292
:100E8000CF92DF92EF92FF924B015C010E94170715
:100E90006B017C010E9417076C197D098E099F095F
:100EA000683E734081059105A8F321E0821A9108FC
:100EB000A108B10888EEC80E83E0D81EE11CF11C21
:100EC00081149104A104B10429F7FF90EF90DF9001
:100ED000CF90BF90AF909F908F900895EF92FF9228
:100EE0000F931F93CF93DF93EC01EC80FD806E1581
:100EF0007F050CF070C057FF04C0240F351F50E071
:100F000040E08E819F81FA01E20FF31F8E179F0749
:100F10001CF49C01241B350B121613060CF05BC04D
:100F2000922F842F8695869586958E9DD0018F9DD4
:100F3000B00D11246A0F7B1FAF8DB8A1A60FB71F8C
:100F4000477049F188E0841B482F682F70E0FB014F
:100F5000EF56FA4FE491281708F063C0621B71093D
:100F60002FEF30E002C0359527956A95E2F7E2232E
:100F70000130110539F0B0F10230110561F58C91A5
:100F8000E82702C08C91E82BEC93941720F12C8178
:100F90003D81A20FB31FE92FE41BE83078F0023047
:100FA000110521F58E2F9C9190959C932C813D816C
:100FB000A20FB31F88508830B0F7E770EE2359F0C6
:100FC000F0E0E757FA4FE49101301105F9F010F124
:100FD0000230110519F1DF91CF911F910F91FF9010
:100FE000EF900895E0958C91E823CECF81E0011534
:100FF000110509F480E081959E2F8C932C813D8111
:10100000A20FB31F98509830C0F7D7CF8C91E82B20
:10101000EC93E1CFE0958C91E823FACF8C91E8270F
:10102000F7CF0130110509F4ADCFE0F20230110520
:1010300009F4A5CFAE0DBF1DAECF0F931F93CF9375
:10104000DF9377FF04C0260F371F70E060E0DC01FC
:101050001496CD91DC91FB01E20FF31FCE17DF0751
:101060001CF49E01261B370B121613064CF5FA01D1
:1010700057FD3796A3E0F595E795AA95E1F7EC9F24
:10108000D001ED9FB00DFC9FB00D11246A0F7B1FA6
:10109000DC015F96ED91FC91E60FF71F4770552735
:1010A00081E090E001C0880F4A95EAF7482F0130AF
:1010B000110559F0A8F02E0F3F1F02301105E1F085
:1010C000DF91CF911F910F9108952E0F3F1FE217CF
:1010D000F307B1F38191DF011197842B8C93F7CF44
:1010E00080952E0F3F1FE217F30751F39191DF0117
:1010F000119798239C93F7CFE217F30709F3819197
:10110000DF01119784278C93F7CF0F931F93FA0178
:10111000DC0156964C9156974230E9F04330A1F1EC
:10112000413061F514964D915C91DA01AE1BBF0B15
:10113000FD01E21BF30B77FD0BC0DC0116964D9110
:101140005C916417750724F4AB01BF010E941D0870
:101150001F910F91089514964D915C91DA01A61B91
:10116000B70BBD0161507109DC0116964D915C9180
:10117000DA01AE1BBF0BFD01E21BF30B77FDE8CFDD
:10118000AF010E946E07E4CF16964D915C91DA0193
:10119000A61BB70BBD0161507109CDCF0F931F93F3
:1011A000FA01DC0156964C9156974230A9F0433033
:1011B00091F1413019F514964D915C91DA01AE1B15
:1011C000BF0BFD013197F7FD04C0AB01BF010E94C9
:1011D0006E071F910F91089514964D915C91DA015D
:1011E000A61BB70BBD01DC0116964D915C91DA018F
:1011F000AE1BBF0BFD013197621B730BF7FDE9CFEF
:10120000DC0116964D915C91E417F50714F7AF01D8
:101210000E941D08DECF16964D915C91DA01A61B47
:10122000B70BBD01621B730BCECFFC0177FD64C011
:1012300080859185681779070CF05EC057FD5CC00A
:1012400082859385481759070CF056C086898230ED
:10125000B1F0833029F1813041F484819581841B80
:10126000950BAB01BC01615071092130310509F1C9
:1012700008F443C02230310509F463C00895848125
:101280009581DC01A61BB70BBD01615071098681F8
:101290009781DC01A41BB50BAD0141505109E5CF8D
:1012A00086819781861B970BBA01AC014150510989
:1012B000DCCFCA0157FD0796A3E095958795AA95BF
:1012C000E1F7A481B5818A9F90018B9F300D9A9F91
:1012D000300D1124620F731F078CF0A1E02DE60F73
:1012E000F71F4770552721E030E001C0220F4A95D3
:1012F000EAF78081822B80830895CA0157FD079603
:1013000033E0959587953A95E1F7A481B5818A9F59
:1013100090018B9F300D9A9F300D1124620F731F27
:10132000078CF0A1E02DE60FF71F4770552781E0ED
:1013300090E001C0880F4A95EAF780959081892353
:10134000DACFCA0157FD079623E0959587952A9530
:10135000E1F7A481B5818A9F90018B9F300D9A9F00
:10136000300D1124620F731F078CF0A1E02DE60FE2
:10137000F71F4770552721E030E001C0220F4A9542
:10138000EAF780818227B7CF08958EBD00000DB4A3
:1013900007FEFDCF8EB508958CBD9DBD08950895BF
:1013A000FC016370668B8481958126813781613071
:1013B00039F0633029F09187808733872287089539
:1013C000318720879387828708952F923F924F928B
:1013D0005F926F927F928F929F92AF92BF92CF92C5
:1013E000DF92EF92FF920F931F93CF93DF93CDB7CE
:1013F000DEB76A970FB6F894DEBF0FBECDBF9A8FE7
:10140000898F7A8369834A01D22E18870F83370127
:10141000BC2CDC0159962D913C915A972115310530
:1014200009F015C118968D919C9119976817790745
:101430000CF0D7C11A968D919C91481759070CF062
:10144000D0C14C2C512CB6E0CB9E600D711D1124E7
:101450007C876B87161617060CF0C3C1EA2DF0E0E7
:10146000FA87E98793E0EE0FFF1F9A95E1F7F88B73
:10147000EF87CF01840F951F181619060CF0B1C124
:10148000A98DBA8D58968C91811104C0BFEABD1503
:1014900008F4D394A98DBA8DED91FC911197028433
:1014A000F385E02DCD010995B5E0DB9EC001112447
:1014B000E981FA81FC83EB83312C212C9C01275795
:1014C0003F4F388F2F8B4A2D50E05E8B4D8BEF892D
:1014D000F88DE20DF31D44919E828D82D12CC12C9A
:1014E00069817A81620D731D7A8B698B842F90E0FC
:1014F0009C8B8B8BE98DFA8DA081B18140FF82C0DE
:10150000F1E0BF126FC0AF126DC01C96ED91FC915F
:101510002F813885A4014C0D5D1D69897A89898DDB
:101520009A8D0995EB89FC89F595E7954E2F5FEF2C
:10153000C51AD50A6D817E818D899E89680F791FB4
:101540007E836D8398E0C916D10481F6AFEF2A1A25
:101550003A0AEB81FC81E40DF51DFC83EB83F5E099
:101560002F16310409F0B3CF2F81388526153705A2
:10157000B9F0A98DBA8DED91FC91B1E0BB1257C0C5
:10158000AB1255C069817A816B5F7F4F0088F1890A
:10159000E02D830128E030E0A401898D9A8D099522
:1015A000A98DBA8DED91FC9111970688F789E02DF0
:1015B000CD016A960FB6F894DEBF0FBECDBFDF91A6
:1015C000CF911F910F91FF90EF90DF90CF90BF9040
:1015D000AF909F908F907F906F905F904F903F90D3
:1015E0002F9009941E96ED91FC91EF80F884098567
:1015F0001A8592014D815E816B817C81898D9A8DE6
:10160000099590CF2F8138852615370509F48ACFA3
:1016100031E0B31207C0A31205C01C96ED91FC91F6
:10162000930178CF1E96ED91FC917301E0CF6B850D
:101630007C85641975090684F785E02D73010F8593
:1016400018899201A401898D9A8D0995A9CFF90174
:1016500034969491329745915491D91AB7E0DB9E14
:10166000400D511D1124F901259134913C8B2B8B98
:10167000FA0125903490FA013296749031963491A3
:10168000398B329664903196449041E04C1518F0B5
:101690004A1508F07FC0662D062C000C770B7C8362
:1016A0006B83842D042C000C990B9E838D83A98D54
:1016B000BA8DED91FC9111970284F385E02DCD0157
:1016C0000995512CD12CC12CEA2DF0E0FA87E9873D
:1016D0002B2D30E03C872B87A401440D511D47FC86
:1016E0005A95588F4F8B69817A81660D711D67FC01
:1016F0007A957E876D877989C71608F051CF2C2D92
:1017000030E04D815E81420F531FA985BA854A9F03
:10171000C0014B9F900D5A9F900D1124FC01E80DC4
:10172000F91DF88BEF87852D612C4F89588D420F5D
:10173000531F5E8B4D8B671408F050C044244394B4
:10174000480E877041F4C1010196EB89FC89E20DD6
:10175000F31DD4901C01D7FE19C0A98DBA8DED914F
:10176000FC91662D70E0B1E0BB1219C0AB1217C03E
:101770002D853E85620F731F0484F585E02D2F8132
:1017800038854D895E89898D9A8D0995DD0C639424
:10179000842DD1CF1E821D821C821B8288CF4B815B
:1017A0005C81640F751FAB85BC856A9FC0016B9F10
:1017B000900D7A9F900D112469817A81680F791FAD
:1017C0000684F785E02DEF80F88409851A859D0150
:1017D0004F855889898D9A8D0995D8CF570CC39418
:1017E0008ACF6A960FB6F894DEBF0FBECDBFDF91E9
:1017F000CF911F910F91FF90EF90DF90CF90BF900E
:10180000AF909F908F907F906F905F904F903F90A0
:101810002F9008958F929F92AF92CF92EF92FF9266
:101820000F931F93CF93DF93EC01262F898D9A8D11
:10183000009709F051C06A30D1F41D861C868D894D
:1018400048E0849F900111248E859F85820F931F0D
:101850009F878E8781E090E0DF91CF911F910F915C
:10186000FF90EF90CF90AF909F908F9008956D3044
:1018700089F3CC88AD888F898823C1F08C859D85BC
:1018800036E0C39E800D911D112448855985481767
:10189000590764F44E855F851D861C8638E0A39E3B
:1018A000C0011124840F951F9F878E87EA88FB88CB
:1018B000088919894E855F856C857D85CE010E94DA
:1018C000E5092C898C859D8546E0249F800D911D1E
:1018D00011249D878C87BECF6A3069F41D861C86D3
:1018E000FC013896E4912D898E859F85E29F800DBD
:1018F000911D1124ADCF6D3009F4ACCFFC013496AD
:101900003491631708F4A6CF3296E491E61708F4F1
:10191000A1CFFC01329685909490462F431B342F23
:1019200047E0349F800C911C1124F40132963491CD
:101930003196E4913323A9F1EE2399F1CC88F40197
:101940003596E491AD884F89442301F10E2E000CA9
:10195000FF0BE30FF11DCE9EA001CF9E500D112471
:101960006C857D85460F571F6885798564177507D7
:101970006CF44E855F851D861C86FC013896E491CB
:10198000AE9E400D511D11245F874E87EA88FB886B
:10199000088919894E855F856C857D85CE010E94F9
:1019A000E509F4013496E4912C898C859D85E29FAC
:1019B000800D911D11248DCF6F927F928F929F92F7
:1019C000AF92BF92CF92DF92EF92FF920F931F934D
:1019D000CF93DF93EC016B015A0139014801E88193
:1019E000F9810284F385E02D0995E881F981028867
:1019F000F389E02D87019301A501B601CE01099578
:101A0000A501480D591D41505109E881F98102880D
:101A1000F389E02D9301B601CE010995E881F981A2
:101A20000088F189E02D9401A501B601CE01099548
:101A3000C60CD71CB60161507109E881F981008894
:101A4000F189E02D9401A501CE010995E881F98184
:101A50000688F789E02DCE01DF91CF911F910F917C
:101A6000FF90EF90DF90CF90BF90AF909F908F90BE
:101A70007F906F9009946F927F928F929F92AF9216
:101A8000BF92CF92DF92EF92FF920F931F93CF936B
:101A9000DF935C01EB016A01490138018701DC0138
:101AA000ED91FC916217730719F5641675062CF019
:101AB000962D872D3A01C92ED82E96012619370961
:101AC0002F5F3F4F048CF58DE02DA301BE01C501B2
:101AD0000995DF91CF911F910F91FF90EF90DF90CB
:101AE000CF90BF90AF909F908F907F906F90089510
:101AF0004615570591F42617370724F0892D4B0119
:101B0000C22FD82F9E01281939092F5F3F4F068C0D
:101B1000F78DE02DA601B401DACF0284F385E02D24
:101B20000995D501ED91FC910488F589E02D83019B
:101B30009401A601BE01C5010995D501ED91FC9165
:101B40000688F789E02DC501DF91CF911F910F9194
:101B5000FF90EF90DF90CF90BF90AF909F908F90CD
:101B60007F906F900994EF92FF920F931F93DC0187
:101B70001A960D911C911B9718962D913C911997CF
:101B8000ED91FC9100A0F1A1E02D7B0150E040E03F
:101B900070E060E009951F910F91FF90EF9008951C
:101BA0004F925F926F927F928F929F92AF92BF926D
:101BB000CF92DF92EF92FF920F931F93CF93DF9319
:101BC0006C012B015A0139014801DC01ED91FC91B6
:101BD0000284F385E02D0995E201640C751CD601A1
:101BE000ED91FC91C615D7055CF40088F189E02DD4
:101BF00087019401A501BE01C60109952196EFCF89
:101C00000688F789E02DC601DF91CF911F910F91D2
:101C1000FF90EF90DF90CF90BF90AF909F908F900C
:101C20007F906F905F904F9009948F929F92AF92A8
:101C3000BF92CF92DF92EF92FF920F931F93CF93B9
:101C4000DF93EC015B014A016901E881F9810284BB
:101C5000F385E02D099595012C0D3D1D215031098D
:101C6000E881F9810488F589E02D78018401A401D7
:101C7000B501CE010995E881F9810688F789E02D43
:101C8000CE01DF91CF911F910F91FF90EF90DF90E8
:101C9000CF90BF90AF909F908F9009948F929F921A
:101CA000AF92BF92CF92DF92EF92FF920F931F936A
:101CB000CF93DF93EC015B014A0169017801E88170
:101CC000F9810284F385E02D0995C80CD91C8601A1
:101CD00001501109E881F9810488F589E02D950109
:101CE000A401B501CE010995E881F9810688F7893B
:101CF000E02DCE01DF91CF911F910F91FF90EF90DA
:101D0000DF90CF90BF90AF909F908F900994EF920B
:101D1000FF920F931F93DC01ED91FC9100A0F1A1C4
:101D2000E02D09951F910F91FF90EF9008950F936B
:101D30001F93DC01ED91FC91068CF78DE02D099548
:101D40001F910F9108950F931F93DC01ED91FC916A
:101D5000048CF58DE02D09951F910F910895DC01FC
:101D6000ED91FC910084F185E02D09943F924F9212
:101D70005F926F927F928F929F92AF92BF92CF921B
:101D8000DF92EF92FF920F931F93CF93DF935C014B
:101D90007B014A016901390187E0680E711C93E0FB
:101DA000759467949A95E1F72B01400E511E10E04F
:101DB00000E0312CD0E0C0E0CE0187709927330CD1
:101DC000892B59F4FE0183E0F595E7958A95E1F7B3
:101DD000E00FF11FE80DF91D349037FE0AC021E035
:101DE00030E0A701B5016C0F7D1F8BE492E00E94EB
:101DF000AF0E2196CC16DD06F9F68FEFE81AF80A39
:101E0000060D171DE414F504A9F6DF91CF911F917B
:101E10000F91FF90EF90DF90CF90BF90AF909F9089
:101E20008F907F906F905F904F903F9008952F928A
:101E30003F924F925F926F927F928F929F92AF925A
:101E4000BF92CF92DF92EF92FF920F931F93CF93A7
:101E5000DF9300D000D000D0CDB7DEB73C016A01DF
:101E60003E832D83FC82EB825801A41AB50AB7FE8B
:101E700003C0B194A194B1088D809E80861A970A00
:101E800097FE03C09194819491088A149B045CF09E
:101E9000902F812F0D811E819D838E839C2D8D2DF2
:101EA0006B01692F782F0C151D055CF09D818E81CB
:101EB0007E836D83692F782F902F812F8601C92E05
:101EC000D82E1601201A310A2B012D813E81421A8B
:101ED000530A57FE03C0519441945108710137FED3
:101EE00003C03FEFE31AF30AF594E7948D819E81D6
:101EF000861797075CF5A1E0B0E0BA83A983C01606
:101F0000D1064CF1D301ED91FC910484F585E02DCF
:101F10002B813C81A8016D817E818A149B041CF079
:101F20004D815E81B801C3010995E418F508F7FEFB
:101F30000AC02D813E8189819A81280F391F3E83F5
:101F40002D83E20CF31C0F5F1F4FD9CF2FEF3FEF14
:101F50003A832983D4CF26960FB6F894DEBF0FBEFE
:101F6000CDBFDF91CF911F910F91FF90EF90DF9048
:101F7000CF90BF90AF909F908F907F906F905F9029
:101F80004F903F902F90089585ED8093BC008091F5
:101F9000BC0084FDFCCF10922E0208952091930185
:101FA000260F3327331F21323105ECF420912E0206
:101FB000FC0190E080E0243069F082E00895A09177
:101FC00093012191AC014D585E4FA40FB52FB11D67
:101FD0002C930196861798F380919301680F609374
:101FE000930180E0089581E00895E091E7018091F8
:101FF000E601E81730F4F0E0E851FE4F808190E010
:1020000008958FEF9FEF08959091E7018091E60189
:102010002FEF3FEF981748F4E92FF0E0E851FE4F1B
:10202000208130E09F5F9093E701C901089580917E
:10203000E6019091E701891B990B0895CF92DF92F9
:10204000EF92FF920F931F93CF93DF937C01CB010D
:102050008A0120913202222389F0EB016B01C40E28
:10206000D51ECC15DD0569F06991D701ED91FC9184
:102070000190F081E02DC7010995F3CF642F0E94F4
:10208000CE0FC801DF91CF911F910F91FF90EF907C
:10209000DF90CF900895CF93DF931F92CDB7DEB737
:1020A0006983209132022223F9F020912F022032FD
:1020B00058F021E030E0FC013383228390E080E09F
:1020C0000F90DF91CF91089580913002E82FF0E0DA
:1020D000ED5AFE4F998190838F5F809330028093F9
:1020E0002F0281E090E0ECCF61E0CE0101960E94EA
:1020F000CE0FF7CF20912F0281E0213208F044C0AB
:1021000080912E028111FCCF8091310292E0909358
:102110002E0291E090932D029FEF90932C0210924B
:102120002B0220932A02A3E5B1E0E8E0F2E090E080
:10213000291331C01092290290912902880F892B0E
:102140008093290280912802813049F5109228025B
:10215000809129028093BB008091BC0083FDF8CF61
:1021600085EC8093BC0080912E028230E1F3809157
:102170002C028F3FB1F080912C028032A1F080912F
:102180002C02803391F084E01092300210922F02E2
:102190001092320208953D9131939F5FC9CF85EE31
:1021A000E0CF80E0F1CF82E0EFCF83E0EDCFEF92A0
:1021B000FF920F931F93CF937C01C62F80916802EB
:1021C00090916902892B09F44EC080916C020E94A3
:1021D0008B058091680290916902DC01ED91FC9180
:1021E0000190F081E02D60E009958701EE24E394F1
:1021F000F12CC1508091680290916902CF3F61F14A
:10220000B0E2EB16F104A8F00E947A1080916C0203
:102210000E948B058091680290916902DC01ED912A
:10222000FC910190F081E02D60E00995EE24E394AB
:10223000F12C8091680290916902F8016491DC01AF
:10224000ED91FC910190F081E02D0995BFEFEB1A23
:10225000FB0A0F5F1F4FCDCFCF911F910F91FF90C2
:10226000EF900C947A10E0917802F09179029081CD
:1022700080917E028095892380838701C15008F474
:1022800038C0F80184912091660230916702232BB7
:1022900029F00E94C5090F5F1F4FF0CF28E030E002
:1022A00040E8E0917402F091750290917C02582F01
:1022B0005423D9F05081952B9083E0917602F091D0
:1022C0007702908150917D02952B9083E091760268
:1022D000F0917702508190917D02909595239083A3
:1022E000469521503109E9F6D6CF50819095952336
:1022F000E3CFCF911F910F91FF90EF900895CF936F
:10230000DF9380919B020E948B0560E08FE392E057
:102310000E944B10CBE8D2E0688122968FE392E0D6
:102320000E944B10FE01329761818FE392E00E9480
:102330004B1082E0CB39D80779F78FE392E0DF9139
:10234000CF910C947A101F93CF93DF93EC018D8D76
:102350009E8D892BF9F0162F89A10E948B058D8DFA
:102360009E8DDC01ED91FC910190F081E02D60E00B
:1023700009958D8D9E8DDC01ED91FC910190F08190
:10238000E02D612F09958D8D9E8DDF91CF911F914D
:102390000C947A10ADA5BEA59C918BA9809589233C
:1023A0008C938B8D9C8D892B31F0862FDF91CF9173
:1023B0001F910C94C50928E030E080E8A9A5BAA5D2
:1023C00099A9462F4823C1F04C91942B9C93ABA51F
:1023D000BCA59C914AA9942B9C93ABA5BCA54C9100
:1023E0009AA9909594239C9386952150310931F7B1
:1023F000DF91CF911F9108954C9190959423E6CF52
:102400001F93CF93DF93EC01162F8D8D9E8D892B1B
:10241000B1F12DA93EA94FA958AD60E074E284EF57
:1024200090E00E94BA1E2051310941095109569588
:102430004795379527952093B80066EA111167EA0A
:10244000CE010E94A3118D8D9E8D892B41F129AD66
:102450003AAD4BAD5CAD60E074E284EF90E00E9479
:10246000BA1E2051310941095109569547953795B2
:1024700027952093B800DF91CF911F9108958B8D00
:102480009C8D892B21F08EAD9FAD0E94CC09EFA5CC
:10249000F8A990818CA9809589238083CECFEFA560
:1024A000F8A980819CA9892B8083E5CFDC01ED917F
:1024B000FC910190F081E02D09940F931F93CF932D
:1024C000DF93C82FD42F07E312E0D80112968C9126
:1024D0000E948B05C0686C2F70E0F80180819181AB
:1024E0000E945612D8018D919C91DC01ED91FC91D6
:1024F0000190F081E02D6D2F0995F8018081918187
:10250000DF91CF911F910F910C947A10089590E074
:1025100080E008958A30D0F4E82FF0E0EB56FD4ECD
:1025200070E0660F771F0C94DC1E9F12A712AD128D
:10253000B312B912BF12C512CB12D112D712FB01BE
:10254000E557FD4F87E390E4918380830895FB0175
:10255000E557FD4F82E090E4F7CFFB01E557FD4FD3
:1025600087ED90E0F1CFFB01E557FD4F87EC90E45C
:10257000EBCFFB01E557FD4F82EE90E4E5CFFB0189
:10258000E557FD4F85EE90E4DFCFFB01E557FD4FAA
:1025900085EF90E4D9CFFB01E557FD4F83E090E450
:1025A000D3CFFB01E557FD4F87EF90E4CDCFFB0183
:1025B000E557FD4F87EE90E4C7CFCF93DF93C091EF
:1025C000DC01D091DD01CA30D105ACF0CE016AE06A
:1025D00070E00E94A61E862F60E00E948A12CE0143
:1025E0006AE070E00E94A61E61E00E948A12DF91FC
:1025F000CF910C947F118091C2019091C3018230E0
:10260000910539F488E090E090938C0280938B02DE
:10261000E6CF019719F484E094E2F6CF10928C0291
:1026200010928B02DCCF61E085E00E94740610926C
:10263000C3011092C20181E0809350018091D501C5
:10264000882381F08DE090E09093DD018093DC01A0
:1026500082E090E09093E1018093E0010E94950573
:102660000C94DD128CE090E09093DD018093DC010E
:1026700083E090E0EFCF8091480190914901813053
:102680009105D1F01CF4892B39F008958230910521
:1026900039F10397D9F1089581E090E090934901D1
:1026A0008093480160E086E00E94740661E087E064
:1026B0000E94740660E00FC082E090E090934901B0
:1026C0008093480160E086E00E94740660E087E045
:1026D0000E94740661E088E00E94740660E013C006
:1026E00083E090E0909349018093480160E086E0A8
:1026F0000E94740660E087E00E94740660E088E053
:102700000E94740661E089E00C94740610924901FD
:102710001092480161E086E00E94740660E0C7CF35
:102720000F931F93CF93DF93182FC7E3D2E08A81D3
:102730000E948B051068612F70E0888199810E944A
:102740005612888199810E947A1062E08A810E94E3
:10275000A1051092E7018093E60188819981DC014F
:10276000ED91FC910284F385E02D09958C0188811F
:102770009981DC01ED91FC910284F385E02D0995AE
:1027800020E0382FC801822B932BDF91CF911F912E
:102790000F910895CF93DF930E94A2068091390292
:1027A0000E948B0562E970E08091370290913802B7
:1027B0000E94561280913702909138020E947A103E
:1027C00061E0809139020E94A1051092E701809397
:1027D000E6018091370290913802DC01ED91FC9185
:1027E0000284F385E02D0995843419F0803109F0D5
:1027F00079C081E080933A02C0913D02D0913E02BF
:10280000AE0170E060E00E945D12D0933E02C09382
:102810003D02C0913B02D0913C0280913A0281116D
:102820000BC089E2809339028FE392E090933802E3
:10283000809337020E94CA13AE0170E060E08FE01F
:102840000E945D12D0933C02C0933B0241E050E0F5
:1028500060E070E080E00E945D1263E070E080E084
:1028600090E00E943C0743E050E060E070E080E0D0
:102870000E945D1280913D0290913E02853D91053E
:1028800011F138F4009749F1803C910509F181E09C
:102890002AC0863F910591F08F3F910541F08B3E14
:1028A0009105A9F762E370E080E090E004C063E086
:1028B00070E080E090E00E943C07E9CF68E170E0C2
:1028C00080E090E0F8CF65E670E080E090E0F3CF44
:1028D0006AE970E080E090E0EECF6CEB72E080E0BF
:1028E00090E0E9CF80E0DF91CF9108958091DC0105
:1028F0009091DD0106970CF44FC080913A0281114E
:102900000BC089E2809339028FE392E09093380202
:10291000809337020E94CA1384E10E94901390931F
:102920004B0180934A0186E10E94901390935201DB
:102930008093510188E10E94901390934F018093FE
:102940004E018AE10E94901390934D0180934C01B7
:1029500080913D0290913E02853D9105C9F1F0F4D0
:10296000009709F43FC0803C9105B9F18091510175
:10297000909152012091DC013091DD01263031052A
:10298000E9F58231924098F582E090E09093C3019E
:102990008093C201109250010C94DD12863F910584
:1029A00091F08F3F910541F08B3E9105F9F662E37E
:1029B00070E080E090E004C063E070E080E090E0D0
:1029C0000E943C07D3CF68E170E080E090E0F8CF50
:1029D00065E670E080E090E0F3CF6AE970E080E0C7
:1029E00090E0EECF6CEB72E080E090E0E9CF87E022
:1029F00090E09093DD018093DC01CCCF8231924056
:102A000048F680915001882349F081E090E090934E
:102A1000C3018093C20186E090E0EBCF82E090E0BA
:102A2000F6CF8F929F92AF92BF920F931F93CF9347
:102A3000DF93CDB7DEB7A1970FB6F894DEBF0FBE18
:102A4000CDBF19A2423008F44AE08E010F5D1F4F3E
:102A5000842E912CB12CA12CA50194010E94BA1EA8
:102A6000E62FB901CA01EA3044F5E05DD801EE93E2
:102A70008D01232B242B252B79F790E080E01097F4
:102A800069F0FD0101900020E9F73197AF014A1B81
:102A90005B0BBD018BE492E00E94F505A1960FB699
:102AA000F894DEBF0FBECDBFDF91CF911F910F9184
:102AB000BF90AF909F908F900895E95CD7CF42E090
:102AC00050E064E471E08BE492E00C94F5050F9320
:102AD0001F93CF93DF938C01D0E0C0E0F801EC0F9F
:102AE000FD1F6491662341F08BE492E00E940A0C82
:102AF000892B11F02196F2CF0E945F158C0F9D1F3C
:102B0000DF91CF911F910F91089520915102309143
:102B10005202C901079697FD079623E09595879580
:102B20002A95E1F720914F0230915002829FA00137
:102B3000839F500D929F500D112470E060E08091B2
:102B40006A0290916B020C942020EF92FF920F93F7
:102B50001F93CF93DF930E94851581E090E09093BF
:102B60005E0280935D0290935C0280935B0282E040
:102B700080935F0280936002109258021092570275
:102B800010925A02109259028091C0019091C10195
:102B9000009709F0DDC084E890E00E94671581E0AD
:102BA00080935F0280936002109258021092570245
:102BB000C0E1D0E0D0935A02C093590282E790E07E
:102BC0000E94671508E110E0109358020093570225
:102BD000D0935A02C09359024AE067E270E080E065
:102BE00090E00E9411150E945F15109258021092F9
:102BF0005702C9E1D0E0D0935A02C09359028DE642
:102C000090E00E9467151093580200935702D093EA
:102C10005A02C0935902609151017091520190E0A3
:102C200080E04AE00E94111580916802909169024B
:102C3000892B09F495C02091800230918102409146
:102C400082025091830260E074E284EF90E00E947F
:102C5000BA1E2051310941095109569547953795BA
:102C600027952093B80065E088E690E00E94D71091
:102C700060914F0261508BE492E00E94A311209179
:102C8000510230915202C901079697FD079633E031
:102C9000959587953A95E1F720914F023091500232
:102CA000829F8001839F100D929F100D1124C0916F
:102CB0006A02D0916B0280916802909169020C0FB8
:102CC0001D1F892B09F48BC080916C020E948B051B
:102CD0008091680290916902DC01ED91FC91019074
:102CE000F081E02D60E40995EE24E394F12C8091CD
:102CF0006802909169020C171D0709F448C0B0E200
:102D0000EB16F104A8F00E947A1080916C020E94E8
:102D10008B058091680290916902DC01ED91FC9134
:102D20000190F081E02D60E40995EE24E394F12C0C
:102D300080916802909169026991DC01ED91FC91AA
:102D40000190F081E02D0995BFEFEB1AFB0ACFCF80
:102D5000019719F48FE790E020CF8AE790E01DCF2C
:102D60008091660290916702892B31F080918902EF
:102D700090918A020E94CC09E0917A02F0917B0244
:102D8000908180917F028095892380836CCF0E94FF
:102D90007A108091680290916902892B09F460C0D1
:102DA00020918402309185024091860250918702E1
:102DB00060E074E284EF90E00E94BA1E2051310975
:102DC0004109510956954795379527952093B800A5
:102DD000DF91CF911F910F91FF90EF900895E091B7
:102DE0007802F0917902808190917E02892B808314
:102DF0000C171D0771F289912091660230916702CC
:102E0000232B19F00E94C509F3CF28E030E040E8F9
:102E1000E0917402F091750290917C02582F542336
:102E2000D9F05081952B9083E0917602F091770252
:102E3000908150917D02952B9083E0917602F091E4
:102E40007702508190917D029095952390834695CD
:102E500021503109E9F6CCCF508190959523E3CFED
:102E6000E0917A02F0917B02808190917F02892B20
:102E70008083AECF8091D601882331F01092C101BA
:102E80001092C0010C94A5158091D701882339F0C8
:102E900082E090E09093C1018093C001F3CF81E084
:102EA00090E0F8CF0E941B201F920F920FB60F9256
:102EB00011242F933F938F939F93AF93BF93809150
:102EC000B7019091B801A091B901B091BA013091C8
:102ED000B60123E0230F2D3758F50196A11DB11D32
:102EE0002093B6018093B7019093B801A093B901E4
:102EF000B093BA018091BB019091BC01A091BD013A
:102F0000B091BE010196A11DB11D8093BB019093AC
:102F1000BC01A093BD01B093BE01BF91AF919F9141
:102F20008F913F912F910F900FBE0F901F9018958A
:102F300026E8230F0296A11DB11DD2CF1F920F923A
:102F40000FB60F9211242F933F934F935F936F937C
:102F50007F938F939F93AF93BF93EF93FF93809152
:102F6000B900887F803609F44AC0F0F5883209F448
:102F7000A7C018F5803109F49BC0B8F4882309F480
:102F8000F9C0883009F494C0FF91EF91BF91AF91DF
:102F90009F918F917F916F915F914F913F912F9171
:102FA0000F900FBE0F901F901895883109F488C0BC
:102FB000803251F780932C0214C0803409F49DC0F4
:102FC00040F48033B9F38833F9F680932C0285EC12
:102FD000B0C0803509F485C0883509F496C08834BE
:102FE00099F60E94C40FD0CF883909F48CC038F507
:102FF000883729F050F4883611F0803729F683E0BD
:1030000080932E021092B50157C0883809F47BC016
:10301000803919F0803809F0B7CF8091B50180323E
:1030200008F071C0E091B50181E08E0F8093B50189
:103030008091BB00F0E0EB56FE4F80833DC0803BAB
:1030400039F0E0F4803A09F479C0883A09F09CCF6D
:1030500084E080932E021092940110929301E091EB
:10306000E401F091E50109958091930181110FC070
:1030700081E0809393011092730109C0803C09F4B0
:10308000A6CF883C09F4A3CF883B09F07DCFE0911F
:10309000940181E08E0F80939401F0E0ED58FE4F93
:1030A00080818093BB00909194018091930129C00D
:1030B000809129028093BB0085EC8093BC0064CF93
:1030C00090912B0280912A02981758F5E0912B02DB
:1030D00081E08E0F80932B02F0E0E85FFD4F80814E
:1030E000E9CFE0912B0281E08E0F80932B0280913B
:1030F000BB00F0E0E85FFD4F808390912B02809150
:103100002A029817C8F285E8D8CFE0912B0281E017
:103110008E0F80932B028091BB00F0E0E85FFD4FA3
:10312000808380912D0281115CCF81E08093280201
:1031300084EA8093BC0010922E0226CF85EC809307
:10314000BC0010922E028091B501803230F4E091E3
:10315000B501F0E0EB56FE4F10826091B50170E0D2
:10316000E091E201F091E30185E991E00995109287
:10317000B5010ACF10922C0234CFAFE3B2E0139620
:103180001C921E92129748EE53E060E070E0149695
:103190004D935D936D937C9317978AE091E0119620
:1031A0009C938E93EBE4F2E01382128220E830E0ED
:1031B0003583248380E290E097838683318720875C
:1031C00093878287168A158614861786168681E06D
:1031D000858B848B2FEF3FEF338B228B318B208BB2
:1031E000878B108E128E118E8CE191E091838083FB
:1031F000148E138EB68FA58F10A2178E8FEF84A317
:1032000085A386A387A380E180A780E89AE1A6E052
:10321000B0E085AB96ABA7ABB0AF80EA96E8A1E093
:10322000B0E081AF92AFA3AFB4AF80E586AF17AE89
:10323000E7E3F2E013828FEF90E09783868383E0E9
:1032400090E0958384838FE795E090933402809398
:1032500033020895789484B5826084BD84B581601A
:1032600084BD85B5826085BD85B5816085BD809151
:103270006E00816080936E001092810080918100C9
:1032800082608093810080918100816080938100C1
:10329000809180008160809380008091B100846083
:1032A0008093B1008091B00081608093B0008091E4
:1032B0007A00846080937A0080917A0082608093A3
:1032C0007A0080917A00816080937A0080917A0000
:1032D000806880937A001092C10080916A02909178
:1032E0006B02892B11F10E948515209151023091BA
:1032F000520280914F0290915002213231050CF020
:103300004CC1B9016052710977FF02C06F5F7F4FF6
:10331000759567958357910997FD019600E210E036
:1033200023E730E041EF55E04BC12091510230914D
:103330005202C901079697FD0796B3E095958795C8
:10334000BA95E1F720914F0230915002AC01429FB3
:10335000C001439F900D529F900D11240E94F61EB4
:1033600090936B0280936A02892B09F0BCCF0E9474
:10337000851561E08BE00E94D40660E08BE00E943E
:10338000740661E085E00E94D40661E086E00E9458
:10339000D40661E087E00E94D40661E088E00E94E4
:1033A000D40661E089E00E94D40661E085E00E94D5
:1033B000740661E086E00E94740661E087E00E9486
:1033C000740660E088E00E94740660E089E00E9474
:1033D000740662E081E00E94D40662E08FE00E9401
:1033E000D40662E080E00E94D40662E083E00E949E
:1033F000D40662E084E00E94D40662E082E00E948B
:10340000D40662E081E10E94D40662E085E10E9478
:10341000D40662E084E10E94D40681E780939B0297
:103420000E94A20680919B020E948B0561E270E0DF
:103430008FE392E00E9456128FE392E00E947A108E
:1034400010928C0210928B0210928E0210928D02BA
:103450001092900210928F0210929202109291029A
:10346000109294021092930210929602109295027A
:10347000109298021092970210929A02109299025A
:103480000E947F1180919B020E948B0561E870E091
:103490008FE392E00E9456128FE392E00E947A102E
:1034A00080919B020E948B056FEE70E08FE392E0AB
:1034B0000E9456128FE392E00E947A1089E2809374
:1034C00039028FE392E090933802809337020E9492
:1034D000CA130E94950581E00E944B0621E0892BCA
:1034E00009F020E02093CF018FE00E944B0621E0FD
:1034F000892B09F020E02093D00180E00E944B0648
:1035000021E0892B09F020E02093D10183E00E9483
:103510004B0621E0892B09F020E02093D20184E0C2
:103520000E944B0621E0892B09F020E02093D30173
:1035300082E00E944B0621E0892B09F020E02093D5
:10354000D40181E10E944B0621E0892B09F020E0A3
:103550002093D50185E10E94050721E0843F914039
:103560000CF020E02093D60184E10E94050721E0C1
:10357000843F91400CF020E02093D70128ED31E00A
:10358000E6ECF1E00FEC11E02017310709F4E7C198
:10359000D8018D918D018193F7CFB90160547109E4
:1035A00077FF02C06F5F7F4F7595679582559109D0
:1035B00097FD019600E410E022E530E041ED57E090
:1035C000959587950E94B60E82E080936D0280915A
:1035D000680290916902892B09F4CBC08CE3809337
:1035E0006C020E94A2068091730287FD1EC061E0FA
:1035F0000E94D40661E0809173020E94740661E02B
:1036000070E080E090E00E943C0760E080917302EF
:103610000E9474066AE070E080E090E00E943C073F
:1036200061E0809173020E9474068091680290911B
:103630006902892B09F45CC12091800230918102DA
:10364000409182025091830260E074E284EF90E046
:103650000E94BA1E205131094109510956954795DA
:10366000379527952093B80064E08BEB95E00E9496
:10367000D7106091510261508BE492E00E94A31137
:1036800064E087EB95E00E94D71080916D0260E1C5
:10369000813009F064E18BE492E00E94A31164E0C0
:1036A00083EB95E00E94D7108FE880938802809189
:1036B0004F02909150028038910509F032C18091FB
:1036C0005102909152028034910509F03AC18091E3
:1036D0006D02813009F023C18FE980938802C2E135
:1036E0006AED8BE492E00E94A3116C2F8BE492E0D0
:1036F0000E94A31161E88BE492E00E94A311609103
:1037000088028BE492E00E94A31169ED8BE492E0C1
:103710000E94A31180916D0262E2813009F061EF95
:103720008BE492E00E94A31166E08DEA95E00E948E
:10373000D7108091680290916902892B09F405C124
:103740002091840230918502409186025091870237
:1037500060E074E284EF90E00E94BA1E20513109CB
:103760004109510956954795379527952093B800FB
:10377000FECD61E0809171020E94D40661E08091EB
:1037800072020E94D40680917102082E000C990BDF
:10379000FC01E352FA4FE491F0E0EE0FFF1FED520F
:1037A000FA4F259134913093790220937802FC01ED
:1037B000E154FA4FE491E0937E0280917202082E68
:1037C000000C990BFC01E352FA4FE491F0E0EE0F8C
:1037D000FF1FED52FA4FA591B491B0937B02A093D5
:1037E0007A02FC01E154FA4FE491E0937F028C915C
:1037F000E82BEC938091660290916702892B09F483
:1038000034C0CFB7F8948091BF01811127C0E7EE93
:10381000F5E08491E9ECF5E09491E82FF0E0EE0F0B
:10382000FF1FED55FA4FA591B491EC91E92321F4D6
:1038300061E08AE00E94740661E08AE00E94D4069A
:103840008CB580618CBD8CB580648CBD61E08DE0F1
:103850000E94D40661E08BE00E94D4068091BF01F3
:103860008F5F8093BF01CFBFBECE61E080916F02BA
:103870000E94D40661E0809170020E94D40680917B
:103880006F02082E000C990BFC01E352FA4FE491F1
:10389000F0E0EE0FFF1FED52FA4F25913491309377
:1038A000750220937402FC01E154FA4FE491E09315
:1038B0007C0280917002082E000C990BFC01E352EF
:1038C000FA4FE491F0E0EE0FFF1FED52FA4FA59191
:1038D000B491B0937702A0937602FC01E154FA4FC1
:1038E000E491E0937D028C91E095E823EC937BCE0C
:1038F0008091660290916702892B31F08091890254
:1039000090918A020E94CC09E0917A02F0917B02A8
:10391000908180917F02809589238083A5CE8FEC52
:10392000DCCE8036910569F480915102909152026B
:10393000409739F480916D02813029F480E18093C1
:103940008802C2E0CDCE8FEAFACFE0917A02F09100
:103950007B02808190917F02892B808308CD89E052
:1039600090E09093C5018093C4010E943A170E9491
:10397000DD120E94A51534E6632E712C45E0C42E9D
:10398000D12CC1E0D0E054E0A52EB12C84E6582E15
:1039900090E5892E912C20E0222E20E0322E81E02D
:1039A0000E944B0621E0892B09F020E02093CF01F3
:1039B0008FE00E944B0621E0892B09F020E0209344
:1039C000D00180E00E944B06FF24F394892B09F07C
:1039D000F12CF092D10183E00E944B0621E0892B6B
:1039E00009F020E02093D20184E00E944B0621E000
:1039F000892B09F020E02093D30182E00E944B063E
:103A000021E0892B09F020E02093D40181E10E947C
:103A10004B0621E0892B09F020E02093D50185E1B8
:103A20000E94050721E0843F91400CF020E02093A4
:103A3000D60184E10E94050721E0843F91400CF00B
:103A400020E02093D7018091C8018F1510F40E94C7
:103A500013138091D2019091C901981788F5809134
:103A6000C0019091C101009701F5D092E101C0928F
:103A7000E0019091D3018091CA01891708F0A1C09B
:103A800061E08BE00E94D406ECE9FAE08491833097
:103A900009F47DC020F58130A1F1823009F472C0B3
:103AA00060E08BE00E94740630C0029711F7D0925C
:103AB000E101C092E001D093DB01C093DA01D9CFDC
:103AC0008823B9F28091C0019091C101019789F6D4
:103AD0008091E0019091E101019759F6C6CF8730BE
:103AE00009F45FC0883009F464C08430C9F680915D
:103AF000800080628093800070928B0060928A00C8
:103B000004C084B5806884BD57BC9091D401809175
:103B1000CB01891708F059C00E9413139091D50169
:103B20008091CC018917B0F4D093E101C093E001FA
:103B30008091DA019091DB01181619064CF4D092AD
:103B4000E101C092E00101979093DB018093DA01DB
:103B50000E9476149091D6018091CD01981305C0F2
:103B60009091D7018091CE0198130E943A17A6EC4C
:103B7000B1E0EFECF1E00E171F0709F44FC081919F
:103B80008D93F9CF84B5806284BD58BCBECF80913F
:103B90008000806880938000709289006092880025
:103BA000B4CF8091B00080688093B0005092B30091
:103BB000ACCF8091B00080628093B0005092B4008E
:103BC000A4CF981708F0A1CF6BCF981708F0A6CF15
:103BD0008091D50122E030E03093C3012093C201EF
:103BE000882359F0D093DD01C093DC01D093E1012B
:103BF000C093E0010E94DD1291CF1092DD0110927E
:103C0000DC011092E1011092E0011092DB011092B0
:103C1000DA0160E085E00E947406ECCF49E050E0F4
:103C20005093C5014093C4018091E0019091E1015E
:103C30009C01225031092230310518F50E94E60519
:103C40008536910564F08091E0019091E101029741
:103C500069F40E947614D093E101C093E00121142D
:103C6000310409F49CCE0E94000090CEB092E10194
:103C7000A092E0010E9495059092DF018092DE0102
:103C8000EECF8430910551F50E94E60503973CF391
:103C9000E090DE01F090DF011E141F0464F40E9426
:103CA0003B1351E0E51AF108F092DF01E092DE01EA
:103CB0000E949505D4CF1092E1011092E00110927C
:103CC000DD011092DC011092DB011092DA0160E05C
:103CD00085E00E9474060E94DD12C1CF059709F0AD
:103CE000BECF0E94E60503970CF4B9CFE090D8014F
:103CF000F090D9011E141F0454F40E943B1381E07C
:103D0000E81AF108F092D901E092D801D1CF809160
:103D1000DC019091DD0101979093DD018093DC013E
:103D20000E94DD12B092E101A092E001A5CF8CE1EA
:103D300091E090934C0280934B0280916A029091A3
:103D40006B02009711F00C94921F089597FB072EB9
:103D500016F4009407D077FD09D00E94E21E07FCFC
:103D600005D03EF4909581959F4F0895709561958B
:103D70007F4F0895A1E21A2EAA1BBB1BFD010DC0A7
:103D8000AA1FBB1FEE1FFF1FA217B307E407F5070B
:103D900020F0A21BB30BE40BF50B661F771F881FE7
:103DA000991F1A9469F760957095809590959B017D
:103DB000AC01BD01CF010895EE0FFF1F0590F491F6
:103DC000E02D0994AA1BBB1B51E107C0AA1FBB1F12
:103DD000A617B70710F0A61BB70B881F991F5A9597
:103DE000A9F780959095BC01CD0108950F931F937D
:103DF000CF93DF938230910510F482E090E0E09160
:103E00009E02F0919F0230E020E0B0E0A0E0309709
:103E100099F42115310509F44AC0281B390B2430C7
:103E20003105D8F58A819B816115710589F1FB0106
:103E300093838283FE0111C04081518102811381ED
:103E400048175907E0F04817590799F4109761F09F
:103E500012960C93129713961C933296CF01DF9112
:103E6000CF911F910F91089500939E0210939F028E
:103E7000F4CF2115310551F04217530738F0A9014D
:103E8000DB019A01BD01DF01F801C1CFEF01F9CFDC
:103E900090939F0280939E02CDCFFE01E20FF31F0D
:103EA000819391932250310939832883D7CF209170
:103EB0009C0230919D02232B41F42091020130910C
:103EC000030130939D0220939C02209100013091C8
:103ED00001012115310541F42DB73EB74091040190
:103EE00050910501241B350BE0919C02F0919D023D
:103EF000E217F307A0F42E1B3F0B2817390778F0C1
:103F0000AC014E5F5F4F2417350748F04E0F5F1F1F
:103F100050939D0240939C02819391939FCFF0E038
:103F2000E0E09CCFCF93DF930097E9F0FC0132975C
:103F300013821282A0919E02B0919F02ED0130E0A7
:103F400020E01097A1F420813181820F931F2091EE
:103F50009C0230919D022817390709F061C0F09347
:103F60009D02E0939C02DF91CF910895EA01CE1764
:103F7000DF07E8F54A815B819E0141155105B1F7E4
:103F8000E901FB83EA8349915991C40FD51FEC17CE
:103F9000FD0761F4808191810296840F951FE901EC
:103FA00099838883828193819B838A83F0E0E0E018
:103FB00012968D919C9113970097B9F52D913C9194
:103FC0001197CD010296820F931F20919C02309190
:103FD0009D022817390739F6309751F510929F0244
:103FE00010929E02B0939D02A0939C02BCCFD383FB
:103FF000C28340815181840F951FC817D90761F48E
:104000004E5F5F4F88819981480F591F51834083CC
:104010008A819B81938382832115310509F0B0CF7A
:10402000F0939F02E0939E029ECFFD01DC01C0CF82
:1040300013821282D7CF81E090E0F8940C9427206D
:10404000DC0101C06D9341505040E0F7089515E048
:10405000C4E5D5E004C0FE010E94DC1E2196C535F2
:08406000D107C9F7F894FFCF66
:104068000000A0028000000000004B101E10871204
:10407800E50517100410F50F000000000A0CF505FF
:10408800871286121509E505AF0E870EA30E970E47
:10409800170FE505D00900128508CE08D00DB30D1D
:0840A8003B0DDC0C0D0A0000C9
:107E0000112484B714BE81FFF0D085E080938100F7
:107E100082E08093C00088E18093C10086E0809377
:107E2000C20080E18093C4008EE0C9D0259A86E02C
:107E300020E33CEF91E0309385002093840096BBD3
:107E4000B09BFECF1D9AA8958150A9F7CC24DD24C4
:107E500088248394B5E0AB2EA1E19A2EF3E0BF2EE7
:107E6000A2D0813461F49FD0082FAFD0023811F036
:107E7000013811F484E001C083E08DD089C08234E0
:107E800011F484E103C0853419F485E0A6D080C0E4
:107E9000853579F488D0E82EFF2485D0082F10E0AE
:107EA000102F00270E291F29000F111F8ED06801E7
:107EB0006FC0863521F484E090D080E0DECF843638
:107EC00009F040C070D06FD0082F6DD080E0C81688
:107ED00080E7D80618F4F601B7BEE895C0E0D1E017
:107EE00062D089930C17E1F7F0E0CF16F0E7DF06D8
:107EF00018F0F601B7BEE89568D007B600FCFDCFD4
:107F0000A601A0E0B1E02C9130E011968C91119780
:107F100090E0982F8827822B932B1296FA010C0160
:107F200087BEE89511244E5F5F4FF1E0A038BF0790
:107F300051F7F601A7BEE89507B600FCFDCF97BE46
:107F4000E89526C08437B1F42ED02DD0F82E2BD052
:107F50003CD0F601EF2C8F010F5F1F4F84911BD097
:107F6000EA94F801C1F70894C11CD11CFA94CF0C13
:107F7000D11C0EC0853739F428D08EE10CD085E9AC
:107F80000AD08FE07ACF813511F488E018D01DD067
:107F900080E101D065CF982F8091C00085FFFCCF94
:107FA0009093C60008958091C00087FFFCCF809118
:107FB000C00084FD01C0A8958091C6000895E0E648
:107FC000F0E098E1908380830895EDDF803219F02E
:107FD00088E0F5DFFFCF84E1DECF1F93182FE3DFCA
:107FE0001150E9F7F2DF1F91089580E0E8DFEE27F6
:047FF000FF270994CA
:027FFE00040479
:0400000300007E007B
:00000001FF
